:020000040800F2
:10000000E8600020B9020008255B000825510008BF
:1000100085590008A90900081B8900080000000094
:10002000000000000000000000000000196100084E
:10003000B50A000800000000375F000825610008CD
:10004000D3020008D3020008D3020008D30200083C
:10005000D3020008D3020008D3020008D30200082C
:10006000D3020008D3020008D3020008450A0008A2
:10007000D3020008D3020008D3020008D30200080C
:10008000D302000800000000CD040008D3020008DD
:10009000AD880008BD0A0008D3020008D30200089A
:1000A000D3020008A5610008D3020008D3020008AB
:1000B000D3020008D3020008D3020008D3020008CC
:1000C000D3020008D3020008D3020008D3020008BC
:1000D000D3020008BD710008D3020008D302000853
:1000E000D3020008D3020008D3020008D30200089C
:1000F000D3020008D3020008D30200080000000069
:1001000000000000D302000800000000D302000835
:10011000D302000800000000B1610008D30200080B
:10012000D3020008D3020008D3020008D30200085B
:10013000D30200080000000000000000D302000805
:10014000D3020008D30200080000000000000000F5
:10015000000000000000000000000000000000009F
:10016000000000000000000000000000D3020008B2
:10017000D3020008000000000000000000000000A2
:1001800000000000D3020008000000000000000092
:10019000000000000000000000000000000000005F
:1001A0000000000000000000D3020008D302000895
:1001B000D3020008D3020008D302000800000000A8
:1001C00000000000D3020008000000000000000052
:1001D000D3020008D302000800F002F800F05CF837
:1001E0000AA090E8000C82448344AAF10107DA4592
:1001F00001D100F051F8AFF2090EBAE80F0013F088
:10020000010F18BFFB1A43F00103184724B900007F
:1002100044B900000A444FF0000C10F8013B13F001
:10022000070408BF10F8014B1D1108BF10F8015B4F
:10023000641E05D010F8016B641E01F8016BF9D142
:1002400013F0080F1EBF10F8014BAD1C0C1B09D199
:100250006D1E58BF01F801CBFAD505E014F8016B0B
:1002600001F8016B6D1EF9D59142D6D3704700009D
:100270000023002400250026103A28BF78C1FBD8AF
:10028000520728BF30C148BF0B6070471FB50BF045
:1002900092FB1FBD10B510BD00F0E2F81146FFF74C
:1002A000F5FF09F0CDFF00F000F903B4FFF7F2FF0E
:1002B00003BC00F003F900000948804709480047E3
:1002C000FEE7FEE7FEE7FEE7FEE7FEE7FEE7FEE706
:1002D000FEE7FEE704480549054A064B7047000063
:1002E00095610008D9010008E8360020E860002088
:1002F000E84B0020E84B002053EA020C00F0698034
:100300002DE9F04B4FF00006002B1FBFB3FA83F529
:1003100003FA05F424FA05F65E4012BF1643B2FA5A
:1003200082F502FA05F4C5F120051EBF22FA05FC8C
:1003300044EA0C04203556EA044C4FEA144418BF32
:10034000641C4FF000084FF00009904271EB030C61
:1003500039D3002919BFB1FA81F701FA07F6B0FACB
:1003600080F700FA07F6C7F120071EBF20FA07FC46
:1003700046EA0C062037B6FBF4FCA7EB0507103F56
:1003800007F01F0BCBF120060CFA0BFB2CFA06F63C
:1003900044BFB3460026202FA4BF5E464FF0000B9B
:1003A0005BEA060C08BF4FF0010B19EB0B09ABFB26
:1003B000027C48EB0608C01B06FB02CC0BFB03CCFF
:1003C00071EB0C01C1E70B46024641464846BDE8C9
:1003D000F08B13B54FF000004FF00001AFF3008039
:1003E000BDE81C4070474FF0000200B5134694462C
:1003F0009646203922BFA0E80C50A0E80C50B1F17D
:100400002001BFF4F7AF090728BFA0E80C5048BF90
:100410000CC05DF804EB890028BF40F8042B08BF2E
:10042000704748BF20F8022B11F0804F18BF00F82A
:10043000012B704770477047704710B500F008F8FF
:10044000006810BD10B5044600F002F8046010BD4D
:1004500000487047843600200048704784360020EA
:100460007546FFF7F9FFAE4605006946534620F092
:100470000700854618B020B5FFF72CFFBDE82040E7
:100480004FF000064FF000074FF000084FF0000B50
:1004900021F00701AC46ACE8C009ACE8C009ACE803
:1004A000C009ACE8C0098D46704710B50446AFF3EB
:1004B00000802046BDE81040FFF7F7BE0149182034
:1004C000ABBEFEE7260002007047000010B50448EE
:1004D00001F098F8BDE81040024801F093B8000020
:1004E000C801002034020020F8B504460020009026
:1004F0002068816811F0010F41D18168214A1142C1
:100500002ED18168D5432940491C81601E488068EE
:1005100000F0E07000020DD51C481D490068B0FBDA
:10052000F1F0401C00EB4000800000E0401E009015
:100530000028FBD102F016F806461BE0816811F096
:10054000010F03D181682940491C816002F00AF83B
:10055000801B02280ED920680068C043C00709D05C
:10056000E06D40F01000E065206E40F00100206674
:100570000120F8BD20680168C943C907DED1002009
:10058000F8BD00003F00008000030050780000200C
:10059000400D030010B5044608F0C0F99FED130AA2
:1005A000002084ED060A84ED070A84ED080A84ED34
:1005B0000A0AA072DFED0E0A0520C4ED030ADFED82
:1005C0000D0AE072C4ED050ADFED0B0A5FF00000D2
:1005D000C4ED040A84ED150A04EB8001401CC0B28E
:1005E00081ED0B0A0A28F7D310BD000000000000BF
:1005F00017B7513858A08B428661184170B5044630
:10060000002511B14FF6FF7601E047F6FE76314640
:10061000204608F08DF94104F9D4002120FA01F2B6
:10062000D20701D06D1CEDB2491CC9B20F29F5D318
:10063000E9074FEAD03102D00029E8D001E00029D3
:10064000E5D1C0F30D004FF4B47110FB01F000EEE2
:10065000100ADFED310AB8EE400A20EE200A84EDE0
:10066000060AA07A401CC0B2A072E17A88424FD13B
:10067000D4ED070A294930EE600ADFED290A10EEB1
:10068000100A884202DD30EE600A06E010EE100A21
:100690002449884201D930EE200AD4ED050A002011
:1006A00060EE800AC4ED080AD4ED150A94ED0B1A29
:1006B00070EEC10AC4ED150A04EB8001401CD1EDB7
:1006C0000C0AC0B2C1ED0B0A0928F5D3D4ED080A13
:1006D000F2EE041AC4ED140A94ED151A002031EE5E
:1006E000201A84ED151AC1EE210AC4ED080A94ED12
:1006F000041A60EE810AC4ED090AD4ED0A0A30EE4C
:10070000800A84ED0A0A94ED060A84ED070AA072B5
:1007100094ED060A70BD00000000803800007043B0
:100720000000B443000070C31FB505F02DF90AF0B6
:100730006BFB0B4803F0CCFD01220A490A4804F088
:100740005DFC4FF40050ADF804004000ADF80C0023
:10075000064800900290684604F07EFDFEE7000027
:100760004C040020C5010020980400200008004827
:100770001CB58C4A4178117090F84A10090990F81C
:100780004A100ED00122B2EB111F90F84A107CD112
:100790001039072914D2DFE801F02A35404B5661A1
:1007A0006D0071B1012917D0022909D1D0E91612C3
:1007B000CDE90012436D026DC16C806C0AF0E4F863
:1007C0001CBDD0E91612CDE90012436D026DC16C5B
:1007D000806C09F0F5FE1CBDD0E91612CDE90012BF
:1007E000436D026DC16C806C0AF082FA1CBDD0E9C9
:1007F0001612CDE90012436D026DC16C806C09F0D8
:1008000073FF1CBDD0E91612CDE90012436D026DD5
:10081000C16C806C09F012FF1CBDD0E91612CDE945
:100820000012436D026DC16C806C0AF00BFA1CBDA6
:10083000D0E91612CDE90012436D026DC16C806CD7
:100840000AF09AF91CBDD0E91612CDE90012436DE9
:10085000026DC16C806C09F09DFF1CBDD0E91612C1
:10086000CDE90012436D026DC16C806C0AF03EF858
:100870001CBD0AE0D0E91612CDE90012436D026DED
:10088000C16C806C09F0E4FFF2E70222B2EB111FA9
:1008900090F84A103ED120390529E9D2DFE801F06D
:1008A000030E19242F00D0E91612CDE90012436D72
:1008B000026DC16C806C09F0A9FDD9E7D0E9161270
:1008C000CDE90012436D026DC16C806C09F058FDDA
:1008D000CEE7D0E91612CDE90012436D026DC16C6E
:1008E000806C09F01FFEC3E7D0E91612CDE90012B3
:1008F000436D026DC16C806C09F0CEFDB8E7D0E9A4
:100900001612CDE90012436D026DC16C806C09F0C6
:10091000E9FCADE70322B2EB111FA9D190F84A1010
:10092000322929D00EDC30291BD03129A0D1D0E9C1
:100930001612CDE90012436D026DC16C806C09F096
:10094000B1FC95E7332922D03A2991D1D0E916128A
:10095000CDE90012436D026DC16C806C09F0B2FCF0
:1009600086E7D0E91612CDE90012436D026DC16C25
:10097000806C09F087FC7BE7D0E91612CDE9001204
:10098000436D026DC16C806C0AF04CF970E7D0E9E0
:100990001612CDE90012436D026DC16C806C0AF035
:1009A000DBF865E7C4010020FEE700207047002067
:1009B0007047000010B500220449054806F087FD85
:1009C0000449034806F07AFD002010BDEC13002016
:1009D0001C0B0020EC0F00202DE9F0410F460646CD
:1009E00001460A4806F06AFD084806F02FFD00247B
:1009F000074D04E0315D28460AF0C8F9641C3868E8
:100A0000A042F7D80020BDE8F08100001C0B0020B8
:100A10007034002000207047094A10B5D2F8BC227B
:100A2000D2F814220AB1012010BD0A46014604483A
:100A300006F04DFDBDE81040014806F0B2BD0000D3
:100A40001C0B0020014801F0F2B80000C005002096
:100A50000D4902688A4201D20C4901E00B4920315C
:100A6000D2B21423083AB2FBF3F2436C02F01F0235
:100A700023F003031944816404498031C1640121D6
:100A800091400165704700000804024000080240E0
:100A90000179074A02EB81024265054A4432491E48
:100AA000826501F01F0201219140C165704700007D
:100AB000FC080240704772B6FEE70000014801F0F2
:100AC00076B90000A0020020704700002DE9F84F21
:100AD0004FF000080446CDF800800D4694F85820E9
:100AE000DFF8EC93616947464046012A0AD00126A7
:100AF000F84A84F8586041B1296A012905D0A36EEB
:100B0000EBB129E00220BDE8F88F6868092838D1E8
:100B1000A96A4FF4785041B12B6801F07C0100EADA
:100B200053400843E96A084302E0296800EA51405B
:100B30002168CB6C13400343CB64606621E0C4E9B9
:100B40001971A96A286A31B101F07C01401E08437D
:100B5000E96A084300E0401E29682B79C1F38461EB
:100B600003F01F0399400143A06E401EA066636E10
:100B700043EA0103636604D12068C16C1140194344
:100B8000C164206804F026FB58B995F8250098B197
:100B90002068C16895F8262021F4401141EA4251AD
:100BA000C160206804F01EFB8246206804F012FB3E
:100BB0005AEA00000DD0FBE095F8260095F82410C5
:100BC000400540EA01512068C26822F440121143F6
:100BD000E6E7A86A30B1E86A20B195F82500012857
:100BE0005ED003E095F82500012804D02068C16894
:100BF00021F0007103E02068C16841F00071C1601C
:100C000095F83000012852D02068016921F00201D6
:100C10000161AA6829682068B2F1004F38D004F059
:100C2000FCFA2068416921F000414161206869694E
:100C3000C268C2F3C102520091402A69042A44D01A
:100C400000EB82002B68026EDFF88CC203F0F843E1
:100C500002EA0C020B431A4342F00041016620688D
:100C60002A69A96900EB8200026E22F080720A43B1
:100C70000266297F22682869012923D05FF00001DC
:100C800002EB8000026E22F000720A4302668FE0DF
:100C9000002204F0C2FA2068416941F00041C4E733
:100CA000E06D40F02000E0654FF00108A8E7D5E9CD
:100CB0000D1001432068026922F4FF7242F0020223
:100CC0001143A5E74FF00071DAE7002104F078FA4C
:100CD000400320684FF0000172D004F071FA90FADE
:100CE000A0F0B0FA80F1286842036ED090FAA0F02C
:100CF000B0FA80F0814204D100221146206804F04D
:100D0000A3FA0121206804F05BFA400320684FF049
:100D100001015DD004F054FA90FAA0F0B0FA80F12D
:100D20002868420359D090FAA0F0B0FA80F08142CE
:100D300004D100220121206804F086FA02212068F3
:100D400004F03EFA400320684FF0020148D004F05E
:100D500037FA90FAA0F0B0FA80F12868420344D044
:100D600090FAA0F0B0FA80F0814204D10022022172
:100D7000206804F069FA0321206804F021FA400396
:100D800020684FF0030133D004F01AFA90FAA0F073
:100D9000B0FA80F1286842032FD090FAA0F0B0FAA0
:100DA00080F0814204D100220321206804F04CFA33
:100DB0002068816811F0010F22D0B6E000E004E065
:100DC00004F0FEF9C0F384618DE7C0F3846091E71D
:100DD00004F0F6F9C0F38461A2E7C0F38460A6E7EB
:100DE00004F0EEF9C0F38461B7E7C0F38460BBE7B9
:100DF00004F0E6F9C0F38461CCE7C0F38460D0E787
:100E00002A7B296850F8B03FC1F3120C23EA0C0387
:100E100002F0180C314A22FA0CF20A401343036024
:100E2000E96849457ED1286841031CD090FAA0F1B9
:100E3000B1FA81F1491C01F01F0109294FEA403143
:100E400032D8002912D000BF90FAA0F1B1FA81F196
:100E500001F1010101F01F0106FA01F609D100BFFD
:100E6000C0F3846109E0C0F38461E3E7C0F3846107
:100E7000EEE790FAA0F1B1FA81F101F1010101F080
:100E80001F0146EA816102D1C0F3846003E090FA59
:100E9000A0F0B0FA80F000F1010000F01F0000EBBC
:100EA000400041EA00513AE000290ED090FAA0F14A
:100EB000B1FA81F101F1010101F01F0106FA01F619
:100EC0000ED100BFC0F384610EE0C0F38461F1E78E
:100ED00000007F400040100400F0FF03FFFF070008
:100EE00090FAA0F1B1FA81F101F1010101F01F01C5
:100EF00046EA816102D1C0F3846003E090FAA0F079
:100F0000B0FA80F000F1010000F01F002B4A00EB66
:100F1000400002EB005041EA000141F00071AA6874
:100F2000206800E001E004F078F925482A680242D0
:100F300040D024488168244B01F0E0719A4202D0ED
:100F4000224B9A421BD10B0219D42268B2F1A04F56
:100F500030D1826841F4000122F0E0720A438260DD
:100F60001B481C490068B0FBF1F0801C00EB4000FE
:100F7000800000E0401E00900028FBD11AE0164DD2
:100F8000164BAA4207D1CD0105D422689A4211D04E
:100F900041F0807109E0124DAA420BD14A0209D4F6
:100FA00022689A4206D041F48001826822F0E07201
:100FB0000A43826084F858704046A4E5000020FE91
:100FC0000000088000030050000021C31000C09002
:100FD00078000020400D0300000052C700010050BF
:100FE000000084CB094910B588420DD10868D0F8BB
:100FF0008420D0F880100023054809F0B1F8BDE83E
:101000001040034809F043B810BD0000C80100209B
:10101000F0340020704700002DE9F04104463548C7
:10102000806800F01F05206804F0D4F808BB216830
:10103000C868C96C00F0004011F4C07F00D190B1C5
:1010400094F85800012814D0012084F85800204654
:10105000FFF74AFA02004FF000030CD084F8583032
:101060001046BDE8F081E06D40F02000E065012011
:10107000F7E70220F5E7E06DC00504D5206E20F00B
:101080000800206600E02366E06D42F2010188431B
:1010900040F48050E065184F21684FF0A046B942F7
:1010A00001D1304600E00846884200D01DB9E06D0D
:1010B00020F48010E0656020086084F858302068D3
:1010C000B84200D00646864209D045B1062D06D06A
:1010D000072D04D0E06D40F48010E065C0E7C168E2
:1010E00011F0007FBCD18168044B194041F0080128
:1010F0008160B5E70003005000010050C0FFFF7F92
:10110000704770472DE9F047044690F858009CB0AE
:101110000E464FF00009012815D0012084F8580030
:1011200000251795189520684FF0A04840450ED12E
:10113000284F0097384604F055F88246206804F09E
:1011400051F860B10EE002201CB0BDE8F087E06D00
:1011500040F02000E06584F858500120F4E7BAF12F
:10116000000F09D0E06D40F02000E0654FF001096C
:1011700084F858504846E7E71748326840F61F7130
:10118000002A826822F4604216D094F8383042EA8D
:10119000433273681A438260D8F80820BB6802F0B3
:1011A000010203F001031A43E2D1B36832681A4323
:1011B00083688B431A430BE08260D8F80820BB6831
:1011C00002F0010203F001031A43D1D182688A437D
:1011D0008260CDE700010050000300502DE9F84F78
:1011E00000270446009790F85800DFF8E0930D467A
:1011F000B846012811D0012684F85860206803F011
:10120000EDFF60B1E06D40F02000E0655FF00107A8
:1012100084F858803846BDE8F88F0220FBE7D5E90E
:1012200000210C23206803EA91131844036B01F09A
:101230001F014FF01F0C0CFA01FCC2F3846223EA79
:101240000C038A4013430363206803F0C7FF824600
:10125000206803F0BBFF5AEA00003CD1AA68296865
:101260002068B2F1004F37D003F0C8FF2068416911
:1012700021F00041416120686969C268C2F3C1027E
:10128000520091402A69042A31D000EB82002B6879
:10129000026EDFF83CC303F0F84302EA0C020B4392
:1012A0001A4342F00041016620682A69A96900EBEF
:1012B0008200026E22F080720A430266297F226851
:1012C0002869012910D0002102EB8000026E22F073
:1012D00000720A4302667DE0002203F08FFF20685F
:1012E000416941F00041C5E74FF00071ECE7002192
:1012F00003F060FF400320684FF0000172D003F05C
:1013000059FF90FAA0F0B0FA80F1286842036ED03D
:1013100090FAA0F0B0FA80F0814204D10022114688
:10132000206803F089FF0121206803F043FF400398
:1013300020684FF001015DD003F03CFF90FAA0F06F
:10134000B0FA80F12868420359D090FAA0F0B0FAC0
:1013500080F0814204D100220121206803F06CFF5B
:101360000221206803F026FF400320684FF00201AD
:1013700048D003F01FFF90FAA0F0B0FA80F128687F
:10138000420344D090FAA0F0B0FA80F0814204D138
:1013900000220221206803F04FFF0321206803F0A0
:1013A00009FF400320684FF0030133D003F002FF30
:1013B00090FAA0F0B0FA80F1286842032FD090FA9A
:1013C000A0F0B0FA80F0814204D10022032120680D
:1013D00003F032FF2068816811F0010F22D0ACE0E9
:1013E00000E004E003F0E6FEC0F384618DE7C0F3A3
:1013F000846091E703F0DEFEC0F38461A2E7C0F3EE
:101400008460A6E703F0D6FEC0F38461B7E7C0F3BB
:101410008460BBE703F0CEFEC0F38461CCE7C0F389
:101420008460D0E72A7B296850F8B03FC1F3120CE2
:1014300023EA0C0302F0180C664A22FA0CF20A4066
:1014400013430360E968494577D1286841031CD0FC
:1014500090FAA0F1B1FA81F1491C01F01F010929AC
:101460004FEA403132D8002912D000BF90FAA0F1E3
:10147000B1FA81F101F1010101F01F0106FA01F653
:1014800009D100BFC0F3846109E0C0F38461E3E7E0
:10149000C0F38461EEE790FAA0F1B1FA81F101F1B5
:1014A000010101F01F0146EA816102D1C0F38460AD
:1014B00003E090FAA0F0B0FA80F000F1010000F033
:1014C0001F0000EB400041EA005132E000290ED03D
:1014D00090FAA0F1B1FA81F101F1010101F01F01CF
:1014E00006FA01F606D100BFC0F3846106E0C0F33E
:1014F0008461F1E790FAA0F1B1FA81F101F1010103
:1015000001F01F0146EA816102D1C0F3846003E06B
:1015100090FAA0F0B0FA80F000F1010000F01F0096
:101520002D4A00EB400002EB005041EA000141F07F
:101530000071AA68206803F061FE28482A68024208
:101540003FF466AE26488168264B01F0E0719A426E
:1015500002D0254B9A421CD10B021AD42268B2F158
:10156000A04F7FF455AE826841F4000122F0E07292
:101570000A4382601D481E490068B0FBF1F0401C20
:1015800000EB4000800000E0401E00900028FBD1EE
:101590003EE6184D184BAA4207D1CD0105D422686A
:1015A0009A42F5D041F0807109E0144DAA42EFD182
:1015B0004A02EDD422689A42EAD041F4800182685E
:1015C00022F0E0720A43826022E6000000007F40C1
:1015D00000F0FF03FFFF0700000020FE000008806E
:1015E00000030050000021C31000C09078000020CC
:1015F000400D0300000052C700010050000084CBE2
:10160000704770472DE9F05F04460068066845683A
:10161000DFF854B2DBF8080000F01F07B0070ED562
:10162000A8070CD5E06DC00603D4E06D40F400605F
:10163000E0652046FFF748FA216802200860DFF8DD
:101640002CA270074FF0A04801D5680703D43007DB
:1016500037D5280735D5E06DC00603D4E06D40F4DA
:101660000070E065206803F0C1FD20B3206850459C
:1016700001D1424600E00246824208D03FB1052F28
:1016800005D0092F03D0504503D1414602E0C1687F
:1016900001E00146C96889040DD4016809070AD52B
:1016A00003F09CFD58B3E06D40F01000E065206E43
:1016B00040F0010020662046FFF7A2FF21680C20C1
:1016C0000860B00601D5A80603D4700658D5680690
:1016D00056D5E06DC00603D4E06D40F40050E065DF
:1016E0002068C16C11F4C07F1AD00021894603F034
:1016F0007DFD02462068504514D1434613E0206822
:10170000416821F00C014160E06D20F48070E065DB
:10171000E06DC004CFD4E06D40F00100E065CAE7A1
:101720000121E3E70346834208D03FB1062F05D0ED
:10173000072F03D0504503D1414602E0C16801E0C4
:101740000146C968B9F1000F14D08B0102D58AB1E6
:101750008A040FD4026852060CD589020AD403F019
:1017600035FDE8B3E06D40F01000E065206E40F01C
:10177000010020662046FFF735FC216860200860E4
:1017800030060BD5280609D5E06D40F48030E065C1
:10179000204600F067F9216880200860F0050CD52C
:1017A000E8050AD5E06D40F40030E0652046FFF71B
:1017B000A7FC21684FF480700860B0050CD5A8051F
:1017C0000AD5E06D40F48020E0652046FFF799FCE3
:1017D00021684FF400700860F0062ED5E80600E09E
:1017E00008E02AD5E06BD0B1AFB1DBF8080000F417
:1017F000604013E02068416821F060014160E06DC5
:1018000020F48050E065E06DC005B3D4E06D40F099
:101810000100E065AEE72068C068C00750B1E06D28
:1018200040F48060E065206E40F0020020662046B3
:10183000FFF7E7FE216810200860700512D56805E3
:1018400010D5E06D40F48040E065206E40F0080067
:10185000206621684FF4806008602046BDE8F05F94
:10186000FFF7D8BBBDE8F09F000300500001005017
:10187000F8B54FF0000504002E46009502D0E06D4B
:1018800010B107E00120F8BD204600F0EDF8266613
:1018900084F8586020688168C1F3407119B181688B
:1018A000684A1140816020688168C1F3007189B97C
:1018B0008168654A114041F0805181606348644904
:1018C0000068B0FBF1F04000801C00E0401E00907A
:1018D0000028FBD120688168C1F3007141B9E16D36
:1018E00041F01001E165216E41F001012166012501
:1018F00003F074FCE16DC90600D430B1E06D40F036
:101900001000E06501252846F8BDE06D20F48070E8
:1019100040F00200E0652068806810F0010F11D1EE
:101920004FF0A04080684B4900F00100896801F049
:101930000101084306D148486168826822F47C129C
:101940000A438260E168E06B627F0843A16841EA74
:101950004231084394F8241040EA0140012904D19F
:10196000218D3E4A02EB41410843E16A29B101F46D
:101970007871226B014342EA01002268D168384B3A
:1019800019400143D16020680169626B21F0406118
:1019900011430161206803F019FC70BB207F94F8AB
:1019A0003810800340EA41022168C86844F202030B
:1019B00098431043C86020690028206801690AD054
:1019C00041F480310161206850F8C01F22696FF333
:1019D0000D01114307E021F480310161206850F8C6
:1019E000C01F6FF30D01016094F8400001280CD076
:1019F0002068016921F00101016160690128206806
:101A0000016B21F00F0111D013E0D4E9110108435B
:101A1000D4E913121143084321680A6940F2FC73A8
:101A20009A43104340F001000861E6E7226A521E23
:101A300011430163E06D20F0020040F00100E06519
:101A400061E70000C0FFFF5FC0FFFF7F780000205C
:101A5000400D030000010050000300500000FEFF95
:101A60000740F0FF704700002DE9F04198B00446B0
:101A7000142111A8FEF7B7FC44216846FEF7B3FC19
:101A80004FF40041206800268A032D4D03272D4C7A
:101A90004FF09048B0F1A04F10D02B4B98424CD152
:101AA0000F926846009101F043FB08B1FFF703F87D
:101AB0002868401C286001281FD026E00F92684645
:101AC000009101F035FB08B1FEF7F5FF2868401CD6
:101AD0002860012807D1E06C40F40050E064E06C1D
:101AE00000F400501690E06C40F00100E064E06CFF
:101AF00000F0010016900C2010E0E06C40F4005063
:101B0000E064E06C00F400501690E06C40F00100DE
:101B1000E064E06C00F001001690C0201396CDE95F
:101B2000110711A9404600F0EFFB002211461220D8
:101B300000F082FD122000F071FD18B0BDE8F081C8
:101B400000000020001002400001005010B590F885
:101B5000253000210122022B03D00421C163012181
:101B600022E003681C6824F00E041C60836C1C686F
:101B700024F480741C6003681C6824F001041C6059
:101B800090F84430046C03F01F0302FA03F363601F
:101B9000D0E913345C60436D33B11C6824F4807465
:101BA0001C60D0E916345C6080F82520002280F8A3
:101BB0002420084610BD70B590F82520002401218E
:101BC0002346022A07D00422C26380F8251080F839
:101BD0002430012429E00268156825F00E051560FF
:101BE0000268156825F001051560826C156825F4FA
:101BF0008075156090F84420056C02F01F0201FA10
:101C000002F26A60D0E913255560426D32B1156861
:101C100025F480751560D0E91625556080F82510EB
:101C200080F82430816B01B18847204670BDF0B444
:101C3000016C0C6801680D6890F8442002F01F06E2
:101C4000042202FA06F3234211D06B070FD50B686A
:101C50009B0603D40B6823F004030B6090F8441038
:101C600001F01F018A40016C4A60016B1DE00223F4
:101C700003FA06F727424FF0000C4FF0010218D08C
:101C8000AF0716D50C68A40605D40C6824F00A0426
:101C90000C6080F8252090F8441001F01F018B4063
:101CA000016C4B6080F824C0C16A00291AD0F0BCD6
:101CB00008470823B340234214D02B0712D50B68E2
:101CC00023F00E030B6090F84410036C01F01F0129
:101CD00002FA01F15960C26380F8252080F824C01F
:101CE000416BE2E7F0BC704770B504000CD02B4AA2
:101CF00021681420914209D2294A0A44B2FBF0F02B
:101D00008000606427480AE0012070BD234A5242E7
:101D10000A44B2FBF0F08000606420480838206478
:101D2000022084F825000A6847F6F0708243D4E95F
:101D300002031843D4E904352B431843A36918431D
:101D4000E3691843236A1843104308602046FEF7EE
:101D50007FFEA0680025B0F5804F00D16560A16CC2
:101D600020790860D4E9130141606068401E0328AF
:101D700008D82046FEF78CFE606D0560D4E9160198
:101D8000416002E06565A565E565E563012084F8CD
:101D9000250084F82450002070BD00000804024093
:101DA000F8FFFDBF000002407047704770472DE903
:101DB000F05F04460068016D426D01F4E05102EAF3
:101DC0000108016D426D01F0070102EA0109016D90
:101DD000426D01F0380102EA010A016D476D01F41C
:101DE00071010F40016D426D01F46021456D02EA01
:101DF000010B016DCE43710607D4E943490604D4B3
:101E0000402101652046FFF7D1FFF0050ED4E843DD
:101E1000C0050BD42068D0F8D820D0F8E0101140CD
:101E20004FF480720265204600F0C2F9B8F100005C
:101E300005D0216808654146204600F0BBF9B9F19C
:101E4000000005D0216808654946204600F0ACF93D
:101E5000BAF1000005D0216808655146204600F01F
:101E6000A4F9B00509D4E843800506D421684FF4ED
:101E700000700865204600F09EF930060DD4E84356
:101E800000060AD42068D0F8D420D0F8DC10114025
:101E900080220265204600F08CF9B00409D4E843A2
:101EA000800406D421684FF400500865204600F0F5
:101EB0007EF9300409D4E843000406D421684FF4C5
:101EC00000400865204600F071F970040AD4E84328
:101ED000400407D421684FF480400865206E40F02C
:101EE00080002066BBF1000005D0216808655946D6
:101EF0002046FFF75AFF27B120680765206E384358
:101F00002066206E002802D02046FFF74DFFBDE876
:101F1000F09F00002DE9F041040006D0DFF8E881D1
:101F200094F85C00002518B107E00120BDE8F081BD
:101F300084F85D50204600F0EFF82068816921F0B8
:101F40001001816100F00EFB0646032705E000BF8B
:101F500000F008FB801B0A2811D820688069000760
:101F6000F6D42068816941F00101816100F0FAFA3C
:101F700006460BE000F0F6FA801B0A2806D9206E10
:101F800040F00100206684F85C70CEE7206880692C
:101F9000C007EFD02068816941F0020181612168AA
:101FA000414502D1594960680860207C01282068B9
:101FB000816937D041F040018161607C012820684F
:101FC000816932D021F480418161A07C01282068A0
:101FD00081692DD041F48051816120688169A268B6
:101FE00021F44071114381612068816921F0A401CD
:101FF00081612068016921F010010161E068012818
:1020000019D010B302281BD02068816941F08001EB
:1020100081612068016941F010010161E0680328D5
:102020000ED012E021F04001C6E741F48041CBE739
:1020300021F48051D0E72068816941F0040103E078
:102040002068816941F020018161207EE2694006BB
:102050006FF0FF0101EB0222A0F100701043226A31
:10206000A38A521E10430A0202EB0343184323685B
:10207000D861A068B0F5407F10D1D4E90A0301EB24
:102080000321401E0843216B131303EB0111084386
:10209000A18C02EB014108432168C860206850F818
:1020A000C01FE26B1143016019482064216851F898
:1020B000802FA38E22F4F81242EA03420A601449E8
:1020C00070316164216851F8802F94F8383022F023
:1020D000706242EA03620A600D49B031A1640D49A1
:1020E000E1640C49D83121650A49F031616500F598
:1020F000547120C08842FCD3A5652566012084F870
:102100005C00002012E70000006400400065004011
:1021100000A4004088A5004010B598B004461421E2
:1021200011A8FEF760F944216846FEF75CF91B49E7
:102130002068884230D18014009040030C9068469B
:1021400000F0F6FF08B1FEF7B6FC1548816D41F0CE
:1021500000718165816D01F000711691C16C41F0D3
:102160000201C164C06C11A900F0020016904FF486
:1021700040701190022012900020139014900920BA
:102180001590084800F0C0F800220121152000F049
:1021900053FA152000F042FA18B010BD0064004058
:1021A00000100240000400487047704770477047B5
:1021B00070477047704770472DE9F84F002301269C
:1021C000DFF828C10F278AE006FA03F414EA0102B7
:1021D0007ED023F003056544AA46D5F808909D07F4
:1021E0004FEA157E07FA0EF505EA090B0095B0F1E6
:1021F000904F05D03E4DA84205D14FF001081CE09C
:102200004FF0000819E03B4DA84202D14FF0020800
:1022100013E0394DA84202D14FF003080DE0374DCD
:10222000A84202D14FF0040807E0354DA84202D180
:102230004FF0050801E04FF0060808FA0EF8D845FF
:1022400026D1DFF8C080D8F8009029EA0209C8F842
:10225000009008F10408D8F8009029EA0209C8F8AB
:102260000090DFF8A08008F10C08D8F8009029EA67
:102270000209C8F80090A8F10408D8F80050954366
:10228000C8F80050009ADAF808509543CAF8085088
:10229000D0F800804FEA4309032202FA09F248EA23
:1022A0000208C0F80080DD0800EB8505AA46D5F8D5
:1022B00020804FEA43794FEAD96907FA09F528EAFD
:1022C0000508CAF82080C5689543C560456800E0E8
:1022D00004E0A54345608468944384605B1C31FA44
:1022E00003F27FF471AFBDE8F88F000000000140F9
:1022F0000004004800080048000C00480010004896
:1023000000140048000401402DE9F04FDFF820924E
:10231000002301260324A9F1040B85B00F2709F13E
:10232000040AABF1040EFAE006FA03F52A407CD069
:1023300091F804C00CF0030CBCF1010F02D0BCF109
:10234000020F26D1D0F808C0CDF800C04FEA430CE8
:1023500004FA0CF8CDF810C0DDF800C02CEA080C27
:10236000CDF800C0D1F80C80DDF810C008FA0CF8E8
:10237000DDF800C048EA0C08C0F80880D0F804C0B6
:102380002CEA050C0D79C5F300159D4045EA0C05B6
:1023900045600D79ED43AD070ED0C5684FEA43089F
:1023A00004FA08FC25EA0C05D1F808C00CFA08FC70
:1023B0004CEA050CC0F80CC00D7905F00305022DA0
:1023C00016D1DD0800EB850CCDF808C0DCF82080C4
:1023D0005D074FEAD56C07FA0CF528EA05080D6988
:1023E00005FA0CF5DDF808C045EA0805CCF82050E0
:1023F00005684FEA430CCDF808C004FA0CFC25EA46
:102400000C0591F804C00CF00308DDF808C008FAC8
:102410000CF848EA0508C0F800804D6815F4403F04
:102420007CD0444DD5F860C000E077E04CF0010C62
:10243000C5F860C02D6E23F0030C05F00105009572
:102440003D4D65440295AD684FEA837C4FEA1C78A8
:1024500007FA08FC25EA0C05B0F1904F06D0DFF82A
:10246000DCC0604505D14FF0010C20E04FF0000CBE
:102470001DE0DFF8CCC0604502D14FF0020C16E041
:10248000DFF8C0C0604502D14FF0030C0FE0DFF869
:10249000B8C0604502D14FF0040C08E0DFF8ACC0D2
:1024A000604502D14FF0050C01E04FF0060C0CFA2C
:1024B00008FC4CEA050C029DC5F808C0D9F800508C
:1024C000CC46D1F8048095435FEAC82800D515436F
:1024D000CCF80050DAF80050D446D1F80480954387
:1024E0005FEA882800D51543CCF80050DBF800508F
:1024F000DC46D1F8048095435FEA883800D515435F
:10250000CCF80050DEF80050F446D1F80480954332
:102510005FEAC83800D51543CCF800505B1C0A6848
:1025200032FA03F57FF400AF05B0BDE8F08F00008C
:10253000080401400010024000000140000400486F
:1025400000080048000C0048001000480014004833
:102550000069084000D0012070470AB181617047CE
:102560008162704701488068704700006C0000205D
:102570000248816842681144816070476C00002005
:1025800010B50024032000F077F8022000F008F8CE
:1025900008B1012401E000F025F8204610BD00003C
:1025A00070B50E4E05460024706898B14FF47A71EC
:1025B000B1FBF0F00A490968B1FBF0F001F026FC2C
:1025C00040B9102D06D200222946501E00F034F8E2
:1025D000356000E00124204670BD00006C00002042
:1025E000780000200C4808B5016E41F00101016639
:1025F000016E01F001010091816D41F08051816512
:10260000806D00F080500090052000F035F8BDE8A6
:10261000084000F085BD000000100240002809DBE2
:1026200000F01F02012191404009800000F1E020EC
:10263000C0F8001170470000F0B40E4B1B680C4648
:10264000C3F30223C3F10705042D00D90425191D86
:10265000072901D2002300E0DB1E012606FA05F15E
:10266000491E214099409E40761E16403143F0BCE1
:1026700006F0A6BA0CED00E0064900F00702086873
:102680004FF6FF03184040EA0220034A1043086057
:10269000704700000CED00E00000FA05012201681F
:1026A000C0F8D022002280F8C82231F8540F40F040
:1026B00001000880088840F002000880104670473A
:1026C00070B50F4D044669B101290AD1D4F8D8027A
:1026D00005F033FA607A002803D0286840F006003D
:1026E000286070BD607A28B103F01EFD286820F0D4
:1026F00006002860D4F8D802BDE8704005F0B5B9EE
:1027000010ED00E010B50C0607D501F0070101EB54
:10271000810100EBC100103005E001EB810100EB0D
:10272000C10000F5A87099B232B101220273018193
:10273000190C4181002010BD00220273C180F9E70D
:1027400001EB810200EBC202D0F8D802526A05F018
:102750006AB801EB810200EBC202D0F8D802D2F8CD
:10276000642105F0B4B870B504460B0601F007000B
:1027700000EB800104EBC1014FF001024FF00005B6
:1027800002D54A74103103E081F8515101F5A87166
:10279000087094F89002012808D084F890222068EC
:1027A00005F016FD84F89052002070BD022070BD27
:1027B00070B5044601F00F002279904201D9012042
:1027C00070BD0B0601F0070000EB800104EBC101B6
:1027D0004FF001024FF0000502D54A74103103E0BA
:1027E00081F8515101F5A8718D70087094F890022C
:1027F000012808D084F89022206805F088FD84F82C
:102800009052002070BD022070BD2DE9F047046891
:102810005FEA42480B788D69B4F850804FF0000CA5
:102820004BF68F7748F2800648F68F7948F2C00A57
:10283000444428D540F2024808EBC30834F8084065
:10284000C4F30904A54203D32D1B8D6102D00BE014
:10285000C1F818C0D0F800C03CF823503D4085F4C2
:10286000005535432CF82350520609D50B780568DE
:1028700035F8232002EA090242EA0A0225F8232059
:1028800074B30A8927E040F2064808EBC30834F81D
:102890000840C4F30904A54203D32D1B8D6102D067
:1028A0000BE0C1F818C0D0F800C03CF823503D4000
:1028B00085F4005535432CF82350520609D40D7881
:1028C000036833F8252002EA090242EA0A0223F8E3
:1028D00025202CB14A8949690068234605F0EFFF9D
:1028E0002046BDE8F0872DE9F047054600680C4614
:1028F0005FEA42681646D1F818C02278B0F85080D6
:1029000048F68F774CF280094FF400434FF6FF7A78
:102910004FF00001404472D540F2024808EBC20873
:1029200030F80800C0F30900844514D9BCEB000C52
:10293000C4F818C010D0760408D5D5F800C03CF80B
:1029400022603E4046EA09062CF8226094F82420D2
:10295000012A47D056E1A161607810B1012813D057
:102960001AE02868B0F85030184400EBC200B0F804
:102970000224C2F30902A0F80224B0F8022442F4AF
:102980000042A0F8022407E02868B0F8503018444C
:1029900000EBC200A0F802146278286812B1012A84
:1029A00011D018E0B0F850100844217800EBC100B5
:1029B000B0F80614C1F30901A0F80614B0F8061423
:1029C00041F4004105E0B0F850201044227800EBBB
:1029D000C200A0F8061421782846FFF7B1FE700463
:1029E0006ED40FE1626902446261E2690244E2610D
:1029F0002669226AB24203D33046111A04E040E04D
:102A000084F824100AB110462162617811B10129BD
:102A10002BD033E02968B1F850201144227801EB23
:102A2000C201B1F80224C2F30902A1F8022401F2A2
:102A300002413E2809D94209C60600D1521E0E881D
:102A400043EA822216430E8018E048B14208C307C9
:102A500000D0521C0B880AEA822213430B800DE03F
:102A60000A8842F400420A8008E02968B1F8502040
:102A70001144227801EBC201A1F8020483B2228939
:102A8000BCE040F2064808EBC20830F80800C0F38A
:102A90000900844515D3BCEB000CC4F818C011D054
:102AA000760408D4D5F800C03CF822603E4046EADF
:102AB00009062CF8226094F82420012A51D0A1E0C4
:102AC00045E0A161607810B1012813D01AE02868B0
:102AD000B0F85030184400EBC200B0F80224C2F342
:102AE0000902A0F80224B0F8022442F40042A0F83F
:102AF000022407E02868B0F85030184400EBC20008
:102B0000A0F802146278286812B1012A11D018E0E6
:102B1000B0F850100844217800EBC100B0F806145A
:102B2000C1F30901A0F80614B0F8061441F40041FD
:102B300005E0B0F850201044227800EBC200A0F865
:102B4000061421782846FFF7FBFD70045AD421783B
:102B50002A6832F82100384040EA090022F82100B2
:102B600050E0626902446261E2690244E2612669FE
:102B7000226AB24203D33046111A216204E00AB13C
:102B80001046216284F824106278296812B1012A63
:102B90002AD031E0B1F850201144227801EBC20173
:102BA000B1F80624C2F30902A1F8062401F2064195
:102BB0003E2809D94209C60600D1521E0E8843EAB2
:102BC000822216430E8017E048B14208C30700D0A6
:102BD000521C0B880AEA822213430B800CE00A88FD
:102BE00042F400420A8007E0B1F8502011442278F4
:102BF00001EBC201A1F80604628983B26169286809
:102C000005F078FE21782A6832F8210048F6BF7373
:102C1000184080F0300048F28003184322F8210069
:102C20000020BDE8F08701F0070101EB810100EB16
:102C3000C100D0F86C0170472DE9F04104460F0641
:102C400001F0070000EB800104EBC1014FF0010629
:102C50004FF0000502D54E74103103E081F8515158
:102C600001F5A871022B08700A61CB7000D10D71BB
:102C700094F89002012809D084F89062206805F049
:102C800059F9284684F89052BDE8F0810220FBE70C
:102C900010B501F0070404EB840100EBC101C1E9A8
:102CA00059230022C1F86C2181F8512181F850414B
:102CB000006801F5A87105F07FFB002010BD70B51C
:102CC000044601F007002279904201D9012070BD2D
:102CD0000B064FF000054FF0010206D500EB800116
:102CE00004EBC1014A74103107E001EB810104EBF0
:102CF000C10181F8515101F5A8718A70087094F8EA
:102D00009002012808D084F89022206805F03BFB4F
:102D100084F89052002070BD022070BD10B501F003
:102D2000070404EB840100EBC101C1E9092301227E
:102D300081F834200B630023CB624A7401F8104FF2
:102D4000006805F039FB002010BD10B5044600688E
:102D500005F0B2FD010404D52046BDE8104002F0A4
:102D6000E2BE41050ED5206830F8441F21F4806191
:102D70000180204600F008F92046BDE810400021FF
:102D800000F02EB9410405D5206830F8441F21F425
:102D900080417DE0810405D5206830F8441F21F48E
:102DA000005175E0C1041FD5206830F8401F21F0A4
:102DB00004010180206830F8401F21F008010180E3
:102DC00094F8C802012806D1002084F8C802014600
:102DD0002046FFF775FC204600F0EAF8206830F83E
:102DE000441F21F4805153E0010512D5206830F8CA
:102DF000401F41F008010180206830F8441F21F491
:102E000000610180206830F8401F41F0040101801A
:102E10000AE0010629D5206830F8441F21F080011E
:102E2000018094F8C80218B1204600F009F910BDDD
:102E3000206830F8401F41F004010180206830F81C
:102E4000401F41F008010180012084F8C802206879
:102E5000B0F854003C2101EA9000C4F8CC022046AE
:102E6000BDE810400121FFF72BBC810509D5206882
:102E700030F8441F21F400710180204600F0ACF8C6
:102E800010BDC005FCD5206830F8441F21F48071C6
:102E9000018010BD70B5040004D094F891020025A3
:102EA00010B106E0012070BD84F89052204600F079
:102EB0003FF8032084F89102206805F020FA0020F2
:102EC00001260BE000EB800104EBC1014E74087495
:102ED000CD740D624D62401CC0B28D622179814279
:102EE000F0D8002012E000BF00EB800104EBC1012C
:102EF00081F8515181F8500181F85351C1F8605166
:102F0000C1F86451401CC0B2C1F8685121798142B6
:102F1000EAD894E8070005F0E9F9257384F891628E
:102F2000A07A012802D12046FFF7B8FB002070BD2F
:102F300010B592B0044644216846FDF754FA104992
:102F4000206888421AD14014009000200D906846F5
:102F500000F0EEF808B1FDF7AEFD0A48816D41F4CE
:102F600000018165806D002200F4000011900121B4
:102F70001420FFF761FB1420FFF750FB12B010BDC7
:102F8000005C00400010024070B504464079012505
:102F9000022801D0FDF78FFD2946D4F8D80204F0AD
:102FA0007EFDD4F8D802BDE8704004F031BD0000C9
:102FB00010B50446407A30B10648016821F0060198
:102FC000016003F0B1F8D4F8D802BDE8104004F075
:102FD0004CBD000010ED00E0D0F8D80204F04FBD69
:102FE00010B5044690F8900201280AD0012084F818
:102FF00090022173206805F076FC002084F890028E
:1030000010BD022010BDD0F8D82200F52671104660
:1030100004F051BD10B5044690F8900201280CD080
:10302000012084F89002206805F037FC206805F044
:1030300056F9002084F8900210BD022010BD000057
:1030400010B50446D0F8D80204F077FD607A002865
:1030500004D00348016841F00601016010BD000082
:1030600010ED00E02B492C4B0A6832214A432B49D2
:1030700040B1B0F5007F086829D020F4C06040F46A
:1030800080602CE00868C0F34120022804D051F889
:10309000800F20F4807022E0D1F8800020F480704E
:1030A000C1F88000086820F4C06040F40070086037
:1030B000B2FBF3F0401C00E0401E4A69520501D506
:1030C0000028F9D1486940050AD503207047C0F3AC
:1030D0004120022806D051F8800F40F4807008602B
:1030E00000207047D1F8800040F48070C1F8800063
:1030F000086820F4C06040F400700860B2FBF3F090
:10310000401C00E0401E4A695205DBD50028F9D179
:10311000D8E700007800002040420F000070004017
:103120000248816841F4804181607047007000402E
:103130002DE9F8430446006800269D4D00035ED546
:10314000A86D0027C00008D4A86D40F08050A86585
:10315000A86D012700F080500090DFF85892D9F850
:10316000001041F48071C9F80010FFF7FBF98046A8
:1031700006E000BFFFF7F6F9A0EB080002282BD805
:10318000D9F80000C005F5D5D5F8900010F44070CE
:1031900014D0216C814211D0D5F89000D5F8901050
:1031A00020F4407041F48031C5F89010D5F89010AB
:1031B00021F48031C5F89010C5F89000C00711D0F7
:1031C000FFF7D0F9804641F2883907E0FFF7CAF9E6
:1031D000A0EB0801494501D903260BE0D5F8900082
:1031E0008007F3D5D5F89000216C20F44070084397
:1031F000C5F890001FB1A86D20F08050A865207818
:10320000C00707D0D5F88800616820F003000843A4
:10321000C5F888002078800707D5D5F88800A16810
:1032200020F00C000843C5F888002078400707D537
:10323000D5F88800E16820F030000843C5F8880020
:103240002078000707D5D5F88800216920F0C00054
:103250000843C5F888002078800607D5D5F888008F
:10326000616920F440600843C5F888002078400672
:1032700007D5D5F88800A16920F440500843C5F867
:1032800088002078000607D5D5F88800E16920F489
:1032900040400843C5F888002088C00507D5D5F808
:1032A0008800216A20F440300843C5F8880020884F
:1032B000800507D5D5F88800616A20F440200843CE
:1032C000C5F88800208840050FD5D5F88800A16A88
:1032D00020F440100843C5F88800A06AB0F5801FAC
:1032E00003D1E86840F48010E860208800050FD51D
:1032F000D5F88800E16A20F440000843C5F888004A
:10330000E06AB0F5800F03D1E86840F48010E8600F
:103310002088C0040FD5D5F88800216B20F04070BC
:103320000843C5F88800206BB0F1807F03D1E868BE
:1033300040F48010E86020884FF0006180040ED5D2
:10334000D5F88800626B20F040601043C5F8880013
:10335000606B884203D1E86840F48010E860208800
:1033600040040ED5D5F88800A26B20F040601043D1
:10337000C5F88800A06B884203D1E86840F480104B
:10338000E860208800040FD5D5F88800E16B20F0B4
:1033900040500843C5F88800E06BB0F1805F03D16E
:1033A000E86840F48030E8603046BDE8F88300000B
:1033B00000100240007000402DE9F0470E46050065
:1033C0004FF0000725D0DFF8AC81D8F8000000F0FE
:1033D0000F00B0420CD2D8F8001021F00F01314399
:1033E000C8F80010D8F8000000F00F00B04210D16B
:1033F0002968614CC80741F2883A5AD06868DFF8FA
:103400007C91032808D0022820682DD04005002890
:103410002CDB0120BDE8F08720688001F9D5E06849
:1034200000F00302E068C0F30310401C032A19D027
:10343000534A00BFB2FBF0F0E268C2F306225043E9
:10344000E268C2F34162521C5200B0FBF2F0484500
:1034500017D9A06810F0F00F0CD0880711D5A86814
:1034600040B10EE0474AE5E78003D0E700F0B6F848
:10347000484506D9A06820F0F00040F08000A06028
:103480008027A068696820F003000843A060FFF768
:1034900069F8814606E000BFFFF764F8A0EB090178
:1034A00051453AD8A068696800F00C00B0EB810F74
:1034B000F2D12868810714D5400703D5A06840F4ED
:1034C000E060A0602878000705D5A06820F460506F
:1034D00040F4E060A060A068A96820F0F000084314
:1034E00004E0802F03D1A06820F0F000A060D8F89D
:1034F0000010404601F00F01B14216D9016821F0D9
:103500000F0131430160FFF72DF8074607E000BFC8
:10351000FFF728F8C11B514501D903207AE7D8F8F5
:10352000000000F00F00B042F2D12878400705D526
:10353000A068E96820F4E0600843A06028780007EC
:1035400006D5A068296920F4605040EAC100A06057
:1035500000F044F8A1680C4AC1F30311515C01F07A
:103560001F01C8400949086009480068BDE8F047E4
:10357000FFF716B8002002400010024000B4C40457
:103580000024F400001BB700F2B900087800002006
:103590006C0000200548064900688968054AC1F3A7
:1035A0000221515C01F01F01C840704778000020E3
:1035B0000010024002BA0008054806490068896800
:1035C000054AC1F3C221515C01F01F01C840704798
:1035D000780000200010024002BA0008184910B517
:1035E0008868C0F381021748012A0BD08A68164BFD
:1035F000C2F38102022A06D08A68C2F38102032A3A
:1036000003D0002010BD184610BDCA6802F00304A4
:10361000CA68C2F30312521C032C02D0B0FBF2F0B2
:1036200001E0B3FBF2F0CA68C968C2F30622504356
:10363000C1F34161491C4900B0FBF1F010BD00002D
:10364000001002400024F400001BB7002DE9F843ED
:1036500004007AD02078F84DC00747D0A868E96800
:1036600000F00C0001F003010C2802D0082817D04C
:1036700001E0032914D06068B0F5803F17D0B0F5A1
:10368000A02F286817D020F480302860286820F404
:10369000802028606068E0B1FEF764FF064614E011
:1036A0002868800322D560680028D2D01EE02868F0
:1036B00040F48030EDE740F480202860F7E700BF59
:1036C000FEF750FF801B642870D828688003F7D568
:1036D0000CE0FEF747FF064605E000BFFEF742FF9D
:1036E000801B6428F0D828688003F7D420788007EE
:1036F0004CD5A868E96800F00C0001F003010C2823
:1037000002D004280DD001E002290AD0E068002888
:1037100028682BD040F480702860FEF723FF06460F
:1037200019E02868400502D5E068002891D0686853
:10373000217C20F0FE4040EA01606860BF480068DC
:10374000FEF72EFF002800D120E072E1FEF70AFF0D
:10375000801B0228B8D828684005F7D56868217C06
:1037600020F0FE4040EA016068600FE020F48070C5
:103770002860FEF7F7FE064605E000BFFEF7F2FE02
:10378000801B0228A0D828684005F7D420780007BD
:1037900029D560690028D5F8940013D040F00100C5
:1037A000C5F89400FEF7DEFE064606E090E000BF96
:1037B000FEF7D8FE801B022886D8D5F89400800733
:1037C000F6D510E020F00100C5F89400FEF7CAFE1F
:1037D000064604E0FEF7C6FE801B022878D8D5F81E
:1037E00094008007F6D42078400761D5A86D0026A4
:1037F000C00008D4A86D40F08050A865A86D0126CF
:1038000000F0805000908E480168C90511D401680D
:10381000804641F480710160FEF7A4FE074604E093
:10382000FEF7A0FEC01B022852D8D8F80000C00541
:10383000F6D5A068012815D00528D5F8900016D037
:1038400020F00100C5F89000D5F8900020F00400A9
:10385000C5F89000A06841F28838B8B1FEF782FE42
:1038600007460EE0D5F8900040F00100F0E740F088
:103870000400C5F89000F5E7FEF774FEC11B414552
:1038800026D8D5F890008007F6D50CE0FEF76AFE42
:10389000074604E0FEF766FEC11B414518D8D5F87F
:1038A00090008007F6D41EB1A86D20F08050A86566
:1038B0002078800629D5A0690028D5F8980013D073
:1038C00040F00100C5F89800FEF74CFE064606E001
:1038D00075E000BFFEF746FE801B02286FD8D5F8C2
:1038E00098008007F6D510E020F00100C5F8980098
:1038F000FEF738FE064604E0FEF734FE801B022881
:103900005DD8D5F898008007F6D4E069F0B3A968CF
:10391000C1F3810103295DD00228286820F080705E
:10392000286003D0FEF71EFE04464BE0FEF71AFEA9
:10393000064604E0FEF716FE801B02283FD82868E2
:103940008001F7D4F4E908016FF00F0202EB0111D6
:103950000843218A5204490802EB4151A26841EA16
:1039600002210843217D4FF07E42490802EB41616C
:103970000843217B40EAC160E968324A11400843AC
:10398000E860286840F08070286000E05EE0E86849
:1039900040F08070E860FEF7E5FD044605E000BFFA
:1039A000FEF7E0FD001B022809D828688001F7D542
:1039B0004CE000BFFEF7D6FD001B022802D9032011
:1039C000BDE8F88328688001F4D4E8681E490840FF
:1039D000E8603BE00128F3D0E868226A00F00301C8
:1039E000914226D1616A00F0F0020901103991423A
:1039F0001FD1A26A00F4FE41B1EB022F19D194F855
:103A00002C2000F07841B1EBC26F12D1218E00F46E
:103A1000C00249084905A1F50011914209D194F865
:103A2000341000F0C06049084906A1F100718142DC
:103A30000CD00120C4E70000001002406C00002000
:103A4000007000400C809F01FCFFEEFE0020B7E7F5
:103A500070B5040009D0606A002540B12561656138
:103A6000A56294F85D0040B10CE0012070BD606873
:103A7000B0F5827FF4D0E561F2E784F85C5020462F
:103A800000F05CF8022084F85D002068016821F0F5
:103A900040010160E1684FF4E062914201D90020E9
:103AA00001E04FF48050B1F5706F02D0914200D028
:103AB000A562A188228901F4827102F404421143B3
:103AC000227C02F002021143227D02F00102114326
:103AD000228B02F400721143227F02F0380211435C
:103AE00094F8202002F080021143228D02F400524B
:103AF000114322681160A169042202EA114194F87D
:103B0000242000F4805002F01002114394F8342075
:103B100002F008021143A28902F4706211430143CA
:103B2000206841602068C16921F40061C161256697
:103B3000012084F85D00002070BD000010B586B043
:103B4000044614216846FCF74EFC1249206888425E
:103B50001DD11148016E41F480510166016E01F4DE
:103B600080510591C16C41F00201C164C06C69468D
:103B700000F0020005903820009002200190002003
:103B800002900390052004900448FEF7BDFB06B0A8
:103B900010BD000000300140001002400004004849
:103BA0002DE9FF5F044690F85C0000260E9F1D463D
:103BB00093464FF0010901280FD04FF0010A84F815
:103BC0005CA0FEF7CFFC804694F85D006168012898
:103BD0000DD0B1F5827F08D103E0022004B0BDE82A
:103BE000F09FA16809B9042801D0022609E10198D3
:103BF000002876D0BBF1000FFBD0002DF9D094F84F
:103C00005D00042802D0052084F85D0000202066B5
:103C1000C4F840B0A4F84650A4F844500199A163F8
:103C2000E587A587E0642065E0684FF4E06188429D
:103C300001D8012D04D92068426822F4805203E0A3
:103C40002068426842F4805242602068026852064E
:103C500003D4026842F040020260E0688842606873
:103C600048D908B1012D3DD1A06B21680088C860FA
:103C7000A06B801CA063E08F401EE08732E02068CC
:103C8000816889070FD5E18F69B1B9F1010F0AD1B8
:103C9000A16B0988C160A06B801CA063E08F401EEF
:103CA000E0874FF0000920688168C9070FD0B4F899
:103CB000461061B1C068216C0880206C801C2064B3
:103CC000B4F84600401EA4F846004FF00109FEF784
:103CD00049FCA0EB0800B84204D3781C02D00326AC
:103CE0008DE08AE0E08F0028C9D1B4F846000028B2
:103CF000C5D177E008B1012D6DD1E08F0128A06B0F
:103D000008D921680088C860A06B801CA063E08F80
:103D1000801E07E0216800780873A06B401CA06338
:103D2000E08F401EE08756E02068816889071AD539
:103D3000E18FC1B1B9F1010F15D1E18F0129A16B5B
:103D400007D90988C160A06B801CA063E08F801E2A
:103D500006E009780173A06B401CA063E08F401E51
:103D6000E0874FF0000920688168C90728D0B4F8BF
:103D7000461029B3B4F84610012914D9C068216C43
:103D80000880206C801C2064B4F84600801EA4F8D3
:103D90004600B4F84600012810D82068416841F474
:103DA000805141600AE0007B216C0870206C401C4F
:103DB0002064B4F84600401EA4F846004FF0010904
:103DC000FEF7D0FBA0EB0800B84202D3781C02D06B
:103DD00085E7002F83D0E08F0028A5D1B4F84600F6
:103DE0000028A1D142463946204602F0A5F810B17C
:103DF000012620202066206E08B1012601E084F80B
:103E00005DA0002084F85C003046E7E610B5401E57
:103E1000B0F1807F01D3012010BD4FF0E02460613C
:103E20000F21601704F0CCFE0020A0610720206164
:103E3000002010BD704770477047000030B590F803
:103E40003C20012A42D0012280F83C20CA688B68BD
:103E500022F440721A434B6822F480621A430B68C2
:103E600022F400621A430B6922F480521A434B6910
:103E700022F400521A430B6B22F480421A430B8B3C
:103E800022F4702242EA0342CB6922F080521A43A4
:103E90000F4D03680024AB4202D00E4DAB4210D14F
:103EA0000D8D22F4700242EA05520D6A22F08072F2
:103EB0002A434D6A22F000722A43C96A22F0005256
:103EC0000A435A6480F83C40002030BD022030BDD7
:103ED000002C01400034014070B5054690F83C00CC
:103EE0000C4601281CD0012085F83C00D4E90021B3
:103EF000A368286802F0DAF9D4E9040101432868CC
:103F0000826D237B22F0E602012B0BD000231A43A3
:103F1000114341F001018165002085F83C0070BD2E
:103F2000022070BD2023F2E77047704770B588B05B
:103F30000E46040004D094F83D00002518B107E0B7
:103F4000012008B070BD84F83C50204600F05CF8B9
:103F5000022084F83D00211D206802F02FF9B3688B
:103F600031680322206802F05DFB2068816921F03E
:103F70000C01816120688169726811438161206848
:103F8000416841F080014160206881681B4A11400E
:103F900081602068816841F040018160206881680B
:103FA000174A114081602068816841F004018160F6
:103FB0007020059504950695039502950090F0688C
:103FC00001906946206802F0D3F9206841680D4AE3
:103FD000114041602068416841F05001416001207A
:103FE00084F8480084F83E0084F83F0084F84400D8
:103FF00084F8450084F83D000020A2E78FFFCFFF42
:10400000F8FFFEFF8FFFFFFD30B587B00446142197
:104010006846FCF7E8F92249206888423ED12148E9
:10402000816D41F002018165816D01F00201059110
:10403000C16C41F00101C164C16C01F00101059145
:10404000C16C41F00201C164C16C01F00201059133
:10405000C16C41F00401C164C06C022400F0040092
:104060000590102000258DE83100CDE90354694604
:104070004FF09040FEF748F901208DE83100CDE97E
:10408000035469460848FEF73FF940208DE83100A7
:10409000CDE9035469460548FEF736F907B030BD4F
:1040A00000040040001002400004004800080048DE
:1040B00070470000F0B590F83C20012A3AD0012565
:1040C00080F83C50022280F83D2003685A689C68C2
:1040D000194E1A4FB34201D0BB4204D122F4700CE6
:1040E0004A6842EA0C02DFF858C002EA0C02D1F832
:1040F00000C04CEA020CC3F804C00268B2420DD002
:10410000B2F1804F0AD00F4B9A4207D00E4B9A4221
:1041100004D0BA4202D00D4B9A4204D1896824F0EF
:1041200080031943916080F83D50002180F83C10D5
:104130000846F0BD0220F0BD002C014000340140D3
:104140008FFFFFFD000400400008004000400140D8
:1041500010B50446022249B104290ED0082913D013
:1041600094F84700012816D0012010BD94F84400AF
:104170000128F9D184F844200FE094F84500012883
:10418000F2D184F8452008E094F846000128EBD1EC
:1041900084F8462001E084F847200422206802F0D9
:1041A00078F82068416C41F400414164104920686E
:1041B00088420ED0B0F1804F0BD00E49884208D013
:1041C0000D49884205D00D49884202D00C498842E9
:1041D00007D181680B4A1140062906D0B1F5803F0E
:1041E00003D0016841F001010160002010BD000012
:1041F000002C014000040040000800400034014051
:104200000040014007000100704710B5040003D0D2
:1042100094F83D0010B107E0012010BD002084F8A3
:104220003C00204600F022F8022084F83D00211DC9
:10423000206801F0C3FF012084F8480084F83E00A4
:1042400084F83F0084F8400084F8410084F842007C
:1042500084F8430084F8440084F8450084F846005C
:1042600084F8470084F83D00002010BD08B5154AC9
:104270000168154891420ED1016E41F4006101665A
:10428000006E012200F40060009000211920FEF76A
:10429000D3F9192010E00D4A914211D1816D41F0FE
:1042A00010018165806D002200F010000090022155
:1042B0003620FEF7C1F93620BDE80840FEF7AEB95A
:1042C00008BD0000002C014000100240001000401A
:1042D00090F83D10012901D001207047022180F89B
:1042E0003D100168CA6842F00102CA6000681049C6
:1042F00088420ED0B0F1804F0BD00E49884208D0D2
:104300000D49884205D00D49884202D00C498842A7
:1043100007D181680B4A1140062906D0B1F5803FCC
:1043200003D0016841F001010160002070470000E6
:10433000002C01400004004000080040003401400F
:10434000004001400700010070B5044690F83C00B1
:104350000025012814D0012684F83C60022084F84E
:104360003D0022689068364B184020F47F409060F2
:10437000086870282ED010DC10F00F0F03D021E059
:104380004FF0020070BD4FEA2012072A1AD2DFE870
:1043900002F0525252524A3840002A4BC21A9842F6
:1043A00049D009DCB0F5805F0DD0B0F5005F1CD0BE
:1043B000B0F1101F06D13EE0102A3CD0202A3AD09E
:1043C000502A38D0012584F83D60002084F83C0054
:1043D000284670BDCB68D1E90121206801F066FF55
:1043E0002068816841F0770109E0CB68D1E90121BB
:1043F000206801F05BFF2068816841F480418160A2
:10440000E1E7CA684968206802F0FAF8502120689C
:1044100006E0CA684968206802F03AF9602120681D
:1044200001F04EFFCFE7CA684968206802F0E8F85B
:1044300040212068F4E7226801461046F0E70000BA
:1044400088FFCEFF200010002DE9F0410D4604004A
:1044500003D094F83D0018B108E00120BDE8F081D8
:10446000002084F83C00204600F042F8022084F846
:104470003D00206881681D4A11408160211D20682F
:1044800001F09CFE226890689169166A2B68AF69FA
:10449000034340F20330814341EA0721A868EF69F2
:1044A00008434FF6FC418843E96840EA072001438E
:1044B00028692F6A000140EA0730084369686D697E
:1044C00026F0AA0646EA0515294393602268906102
:1044D00054F8480B0162012004F81F096075A075AB
:1044E000E076207720750020B8E70000F8BFFEFFD7
:1044F00070B586B0044614216846FBF774FF206847
:10450000B0F1804F29D11648816D41F001018165DC
:10451000816D01F001010591C16C41F00101C1649F
:10452000C06C022500F001000590032000900024DB
:10453000CDE901540120CDE903404FF09046694692
:104540003046FDF7E1FE20200090CDE90154694698
:104550003046CDE90345FDF7D7FE06B070BD00003B
:104560000010024070472DE9F04104460068C6681B
:1045700005694FF00007A90713D5B10711D5F91E3A
:10458000016101202077206880698007204602D0E1
:10459000FFF7E8FF04E000F001F9204600F0C3F95E
:1045A0002777680716D5700714D521686FF00400C7
:1045B0000861022020772068806910F4407F20463F
:1045C00002D0FFF7CFFF04E000F0E8F8204600F04B
:1045D000AAF92777280715D5300713D521686FF07A
:1045E00008000861042020772068C0698007204601
:1045F00002D0FFF7B7FF04E000F0D0F8204600F04B
:1046000092F92777E80616D5F00614D521686FF0E1
:1046100010000861082020772068C06910F4407FEE
:10462000204602D0FFF79EFF04E000F0B7F82046D6
:1046300000F079F92777E80708D0F00706D021685D
:104640006FF001000861204600F0ECF9280601D463
:10465000A80408D5300606D521686FF40250086119
:104660002046FFF7E8FBE80508D5300606D52168A7
:104670006FF4807008612046FFF7DCFB680608D500
:10468000700606D521686FF040000861204600F0F2
:10469000D3F9A80608D5B00606D521686FF020002A
:1046A00008612046FFF7C8FBE80208D5F00206D5EE
:1046B00021686FF4801008612046FFF736FCA802DD
:1046C00008D5B00206D521686FF4001008612046B5
:1046D000FFF72AFC680208D5700206D521686FF43E
:1046E000800008612046FFF7E3FC28020AD530026B
:1046F00008D521686FF4000008612046BDE8F0414C
:10470000FFF782BDBDE8F081F0B587B00446142103
:104710006846FBF768FE1E492068884236D11D486E
:10472000C16C41F00201C164C16C01F0020105914C
:10473000C16C41F00101C164C06C022500F00100B0
:1047400005904FF4C04000900024CDE901540626A6
:10475000114FCDE9034669463846FDF7D5FDA8035C
:104760000090CDE901540420CDE903406946384664
:10477000FDF7CAFD4FF4E0600090CDE90154CDE9AA
:10478000034669464FF09040FDF7BEFD07B0F0BD0F
:10479000002C01400010024000040048704770B532
:1047A000044690F83C0000260D4601280BD001205D
:1047B00084F83C000C2A4AD007DC82B1042A20D0BD
:1047C000082A06D131E0022070BD102A53D0142AE5
:1047D00063D00126002084F83C00304670BD20687C
:1047E00001F078FD2068816941F00801816120684D
:1047F000816921F004018161206881692A6911437E
:1048000011E0206801F0B4FD2068816941F4006185
:1048100081612068816921F48061816120688169FA
:104820002A6941EA02218161D4E7206801F0E8FDAC
:104830002068C16941F00801C1612068C16921F0A7
:104840000401C1612068C1692A69114311E020682F
:1048500001F01EFE2068C16941F40061C161206859
:10486000C16921F48061C1612068C1692A6941EA96
:104870000221C161AEE7206801F052FE2068016D9F
:1048800041F0080101652068016D21F00401016516
:104890002068016D2A69114311E0206801F078FE5B
:1048A0002068016D41F4006101652068016D21F40B
:1048B000806101652068016D2A6941EA0221016574
:1048C00088E710B5040003D094F83D0010B107E06C
:1048D000012010BD002084F83C00204600F022F8A2
:1048E000022084F83D00211D206801F067FC0120B2
:1048F00084F8480084F83E0084F83F0084F84000C3
:1049000084F8410084F8420084F8430084F84400AD
:1049100084F8450084F8460084F8470084F83D0098
:10492000002010BD7047704730B50446022269B1BF
:10493000042912D0082917D00C291CD0102921D005
:1049400094F84300012824D0012030BD94F83E00A3
:104950000128F9D184F83E201DE094F83F00012899
:10496000F2D184F83F2016E094F840000128EBD102
:1049700084F840200FE094F841000128E4D184F845
:10498000412008E094F842000128DDD184F842205B
:1049900001E084F843200122206801F06DFC194BEE
:1049A00020681949194A984209D0884207D0904294
:1049B00005D0174DA84202D0164DA84203D1456C30
:1049C00045F400454564206898420CD0B0F1804F12
:1049D00009D0114B984206D0104B984203D0884220
:1049E00001D0904207D181680D4A1140062906D0B6
:1049F000B1F5803F03D0016841F001010160002062
:104A000030BD0000002C0140003401400040014056
:104A100000440140004801400004004000080040FC
:104A20000700010000680349884201D106F002BA7C
:104A30007047000000100040704790F88410012972
:104A400018D0012180F884102421C0F88810016852
:104A50000A680B6823F001030B6022F0005100226A
:104A60004266036819602021C0F8881080F884200D
:104A7000104670470220704710B5044690F8840035
:104A800001281CD0012084F884002420C4F8880068
:104A900020680168026822F00102026041F00050C3
:104AA0004FF00051616621680860204601F002FE67
:104AB0002020C4F88800002084F8840010BD022063
:104AC00010BD7047704770B5044690F88400012807
:104AD0001DD0012084F884002420C4F888002068B8
:104AE0000568026822F0010202602068826822F0F4
:104AF00060620A438260204601F0DCFD20680560A8
:104B00002020C4F88800002084F8840070BD0220B2
:104B100070BD70B5044690F8840001281DD00120B6
:104B200084F884002420C4F888002068056802689E
:104B300022F0010202602068826822F060420A438B
:104B40008260204601F0B6FD206805602020C4F890
:104B50008800002084F8840070BD022070BD70477A
:104B6000704770472DE9F04103680446D869196819
:104B70009A6840F60F0528424FF000054FF00206F4
:104B80000AD187067ED501F0200702F0805C57EA43
:104B90000C0777D0616F3AE1B24FDFF8CCC2174013
:104BA00001EA0C0C57EA0C0C6CD05FEAC07C0CD00C
:104BB0005FEAC15C09D54FF0010CC3F820C0D4F8FE
:104BC000903043F00103C4F89030830709D5D30730
:104BD00007D023681E62D4F8903043F00403C4F871
:104BE000903043070AD5D30708D0266804233362E0
:104BF000D4F8903043F00203C4F8903003070CD58A
:104C000001F020033B4308D0266808233362D4F820
:104C1000903043F00803C4F8903003050BD54B01E6
:104C200009D526684FF400633362D4F8903043F01E
:104C30002003C4F89030D4F89030002B3DD080068B
:104C400009D501F0200002F08051084303D0616FC4
:104C500009B120468847D4F8900021688968490640
:104C600002D410F0280F2AD0204601F009FE206857
:104C7000806840061ED52068083050E8001F21F0EB
:104C8000400100E021E040E80012002AF3D1D4F80E
:104C9000800078B175498163D4F88000FCF78BFF00
:104CA00000280AD0D4F88000816B00E02046BDE8DF
:104CB000F04108472046FFF754FFBDE8F081204649
:104CC000FFF74FFFC4F89050F7E7D4F86CC02027E7
:104CD000BCF1010F7ED15FEAC06C7BD55FEAC16C8D
:104CE00078D51020186220688068400645D5D4F831
:104CF0008010086840680004000CDED0B4F85C2026
:104D00008242DAD9A4F85E000868006880062CD4D4
:104D1000216851E8000F20F4807041E80002002A69
:104D2000F6D12068083050E8001F21F0010140E86A
:104D30000012002AF5D12068083050E8001F21F049
:104D4000400140E80012002AF5D1C4F88C70E566F5
:104D5000206850E8001F21F0100140E80012002AEE
:104D6000F6D1D4F88000FCF7F1FE2667B4F85C00B9
:104D7000B4F85E10401A81B230E0B4F85C00B4F8C8
:104D80005E10401A81B2B4F85E00002895D0002968
:104D900093D0226852E8000F20F4907042E800039C
:104DA000002BF6D12F4BDB432068083050E8002F52
:104DB0001A4040E8002CBCF1000FF5D1C4F88C700B
:104DC000E5666567226852E8000F20F0100042E8AF
:104DD000000300E006E0002BF4D126672046FFF731
:104DE00070FE6AE7C60209D5560207D54FF4801057
:104DF00018622046BDE8F041FFF7B2BE03060AD5AF
:104E000001F0800302F40002134304D0A16F0029D3
:104E10007FF44CAF51E7420611D54A060FD5204624
:104E2000026852E8001F21F0400142E80013002B05
:104E3000F6D1C0F88870856700F073F93DE702028B
:104E400006D54A0004D52046BDE8F041FFF787BEED
:104E5000C001C6D50029C4DA2046BDE8F041FFF7FD
:104E600031BE000001000010200100046D68000840
:104E700010B5040003D0D4F8880010B107E0012079
:104E800010BD002084F88400204600F027F824207C
:104E9000C4F888002068016821F001010160A06A5F
:104EA00010B1204601F028FC204601F07BFF0128CC
:104EB000E6D02068416821F4904141602068816813
:104EC00021F02A0181602068016841F00101016040
:104ED0002046BDE8104001F073BC00002DE9F0430E
:104EE00097B00646142111A8FBF77DFA44216846C5
:104EF000FBF779FA3B4930683B4D0227DFF8EC902D
:104F000000244FF00708884243D10120CDE9000476
:104F10006846FEF70DF908B1FBF7CDFD286E40F4A9
:104F200080402866286E00F480401690E86C40F0BF
:104F30000200E864E86CCDE9127400F002001690FB
:104F4000C020CDE91448119011A94846FDF7DCF9BD
:104F5000284D27482860192068601020C5E9020400
:104F60008020C5E90404AC61EC6128462C62FCF7A2
:104F7000BBFE08B1FBF79FFDF5670022012125204C
:104F8000AE62FDF759FB2520FDF748FB17B0BDE8E1
:104F9000F08319498842F9D10420009003946846AF
:104FA000FEF7C6F808B1FBF786FDA86D40F4802037
:104FB000A865A86D00F480201690E86C40F002000F
:104FC000E864E86CCDE9127400F0020016904FF42A
:104FD0004060CDE91448119011A94846FDF794F9B5
:104FE000D4E70000003801400010024000040048EF
:104FF00008000240C00500200048004030B4D0F84E
:105000008C30202B02D0022030BC7047A9B1A2B155
:105010000023C3660A4C0368A3420BD05B681B02E3
:1050200008D5046854E8003F43F0806344E8003545
:10503000002DF6D130BC01F0EFBF0120E4E7000005
:1050400000800040084910B588420BD1074801781C
:10505000074805F09BFEBDE81040012203490248C5
:10506000FFF7CCBF10BD000098040020C501002050
:105070000C3400202DE9F8430446D0F88800984607
:1050800016460D46202802D00220BDE8F883A5B1BF
:105090009EB10020C4F890002120C4F88800183484
:1050A000FDF760FAA6878146E68754F8100C2027A2
:1050B000183CB0F5805F02D003E00120E5E72069ED
:1050C00010B12E46002510E000260EE0802120467B
:1050D00002F02AF8C0B9DEB116F8010B2168886227
:1050E000B4F85600401EA4F85600B4F856004B46DB
:1050F0004FF00002CDF800800028E7D14FF04001CA
:10510000204602F011F840B1C4F888700320BCE7D3
:1051100035F8020BC0F30800E0E7C4F888700020FF
:10512000B3E77047FEE770B516460C46054603F038
:10513000D1FC2146284603F000FD284603F06CFC14
:105140003146284603F0F9FC284603F065FC284662
:1051500003F0C0FC641CE1B2284603F0EEFC2846D4
:1051600003F05AFC284603F091FC0446284603F05D
:1051700053FC284603F0C3FC204670BDF0B5002365
:105180000A24302537261F4611E000BFB4EB107FFC
:1051900002D905EB107C01E006EB107C01F813C08E
:1051A00001EB430C00015B1C8CF80170DBB29342F5
:1051B000ECD3F0BD00EB8100006E00F0F8407047CA
:1051C00000EB8100006E00F0F84070478068C0F38B
:1051D000C00070478068C0F3C00070478068C0F3AB
:1051E000800070478068C0F380007047C06810F48A
:1051F000406F01D00020704701207047042303EA6C
:10520000D15310B518444369C1F3045107248C40AD
:10521000A3438A401343436110BD042303EAD153DF
:1052200010B518444369C1F3045107248C40A343CB
:105230008A401343436110BD00EB8100016E21F0F1
:10524000004111430166704700EB8100016E21F0BF
:1052500000411143016670470F22D421FFF763BF5D
:10526000012907D0818C172906D0491C818489B275
:10527000405C7047018CF9E70021F7E700210A46FE
:105280004254491C89B21829FAD300F11701C0E928
:10529000060102848284172141847047438C0022D6
:1052A000172B0FD05B1C9BB24384C154018C172970
:1052B00012D0491C0184018C01448161418C01445C
:1052C000C161704701704284018C491C89B201841C
:1052D0000144C0E9061070470284ECE72DE9F04173
:1052E0009AB000241794189420210FA81994FBF762
:1052F0007AF83C216846FBF776F834484FF0A04135
:10530000012501604FF44031C0E9011400F11001A2
:105310000426C46081E8700004774477056280F851
:105320002440C462046380F83840C46380F840407D
:10533000FCF79EFA08B1FBF7BEFB17A923481794A8
:10534000FBF7E0FE08B1FBF7B6FBDFF8848010AA9C
:1053500006207F27CDF83C8082E8A100CDE91364C8
:105360000FA91A48FBF73AFF08B1FBF7A4FB01A904
:105370000920CDF8008081E8A100CDE90464022075
:10538000089084200A908DF824404FF480708DF8A6
:1053900025400B908DF826408DF8304069460B482B
:1053A000FBF794FB08B1FBF786FB0A48009040F23C
:1053B0000F10019069460548FBF788FB002801D0D3
:1053C000FBF779FB1AB0BDE8F0810000C8010020AE
:1053D0000800900C1000C01070B588B020216846FD
:1053E000FBF701F81F481E49002401604FF44031CB
:1053F000C0E90114042585610121C460C0E90441AC
:10540000047744770226066280F82440C46204636D
:1054100080F83840C46380F84040FCF729FA08B1AE
:10542000FBF749FB104800900620CDE901067F20DC
:105430000594CDE9030569460A48FBF7CFFE08B19C
:10544000FBF739FB094800900C200190694605489C
:10545000FBF7C4FE002801D0FBF72DFB08B070BDA0
:1054600000010050340200200800900C1000C01011
:105470000D4808B5816C41F004018164816C01F034
:1054800004010091816C41F001018164806C002273
:1054900000F00100009002210B20FDF7CDF8BDE8DF
:1054A00008400B20FDF7BAB80010024010B51448B0
:1054B000124900F1140C0160002141608160C1605B
:1054C0000174417481741022012305248CE81C00AE
:1054D00004240462C0E909230A22C2620922026389
:1054E0000222C0E90D21C163FCF714FD002803D09E
:1054F000BDE81040FBF7DFBA10BD000000640040BB
:10550000A00200202DE9F04786B014216846FAF782
:105510006AFF2C48C16C41F00401C164C16C01F008
:1055200004010591C16C41F02001C164C16C01F01E
:1055300020010591C16C41F00101C164C16C01F011
:1055400001010591C16C41F00201C164C06CDFF83A
:10555000788000F002004FF4C044059000222146FC
:105560004046FCF7FAFFDFF864904FF480560022C3
:1055700031464846FCF7F1FFF7004FF0904A002211
:1055800039465046FCF7E9FF0125CDE900450024E6
:105590000294694640460394FCF7B6FE0096CDE9B6
:1055A0000154694648460394FCF7AEFE0097CDE9E6
:1055B0000154694650460394FCF7A6FE06B0BDE8C8
:1055C000F087000000100240000800480004004876
:1055D000124810B5104901604FF4827141600021FA
:1055E0004FF47062C0E902120122C0E904125202B3
:1055F00082611822C0E9072107224162C0E90A122C
:1056000001634163FEF724FA002803D0BDE810408F
:10561000FBF751BA10BD0000003001400403002028
:1056200010B59CB0002419941A94179418941494EB
:1056300015941C2168461694FAF7D5FE342107A864
:10564000FAF7D1FE3A483949C0E9001420218160B7
:1056500041F29901C0E903148021C0E90541FEF738
:10566000D4FD08B1FBF727FA4FF48050179017A923
:105670002F48FEF769FE08B1FBF71DFA2C48FFF72B
:1056800020F908B1FBF717FA1494159414A92848C7
:105690001694FEF70FFD08B1FBF70DFA6020CDE977
:1056A000000402940394049405940022694620485F
:1056B0000694FFF774F808B1FBF7FDF90422694678
:1056C0001B48FFF76CF808B1FBF7F5F908226946AB
:1056D0001748FFF764F808B1FBF7EDF941F29000C5
:1056E00001900C2269461248FFF759F808B1FBF700
:1056F000E2F9079432200894CDE909404FF40050B4
:10570000CDE90B400D9400030E94CDE90F401194A8
:10571000129407A906481394FEF790FB08B1FBF713
:10572000CAF90348FEF7F0FF1CB010BD002C014081
:105730006803002010B592B024216846FAF753FEA2
:1057400000240F941094182109A81194FAF74BFE25
:105750001A484FF08041C0E90014611EC0E90241BF
:10576000046184610120CDE90004CDE902040494C0
:10577000CDE905400794694610480894FEF764FE99
:1057800008B1FBF798F90F940FA90C481194FEF794
:1057900091FC08B1FBF78FF909940A940B948DF8EA
:1057A00030400D9409A905480E94FEF795FB00289A
:1057B00001D0FBF780F912B010BD0000B403002047
:1057C00010B588B0002413480594069403940494FB
:1057D000009401940E490294C0E900144FF6FF7141
:1057E000C0E90241046103A98461FEF79FFB08B18F
:1057F000FBF761F950200090694602940548FEF7D6
:1058000059FC002801D0FBF756F908B010BD000084
:1058100000040040000400203EB500240F4800941E
:1058200001940D49029401601021C0E901144FF464
:105830007A71C16080218161FEF7E7FC08B1FBF756
:105840003AF90094694605480294FEF733FC0028B3
:1058500001D0FBF730F93EBD001000404C040020A1
:10586000174810B515490160164941600021816053
:105870000C22C160C0E904128161C1610162416210
:105880008162FFF7F5FA08B1FBF715F900210C4822
:10589000FFF73FF908B1FBF70EF900210848FFF7C1
:1058A00012F908B1FBF707F90548FFF7E5F80028FA
:1058B00003D0BDE81040FBF7FEB810BD0038014032
:1058C0009804002080841E00184810B51649016015
:1058D0004FF4E1314160002181600C22C160C0E9D8
:1058E00004128161C161016241628162FFF7C0FA05
:1058F00008B1FBF7E0F800210C48FFF70AF908B1FE
:10590000FBF7D9F800210948FFF7DDF808B1FBF7EC
:10591000D2F80648FFF791F8002803D0BDE8104000
:10592000FBF7C9B810BD0000004800402C0500205E
:1059300010B500220F49104801F050FF08B1FBF7E5
:10594000BAF80E490C4802F020F908B1FBF7B3F899
:105950000B49094801F08EFD08B1FBF7ACF8064889
:1059600002F08EF9002803D0BDE81040FBF7A3B881
:1059700010BD0000040000201C0B00205801002076
:1059800058000020FEE7000010B5524C0A202DED13
:10599000028B20805048C4F88C015048C4F8900114
:1059A0004F48C4F834014FF40040A4F83C014FF0D4
:1059B0009040C4F8380104F59A70FAF7EBFDB7EEA1
:1059C000080A84ED030A9FED478AB7EE000A84EDCA
:1059D000048A84ED0F0AB2EE080A84ED100A9FEDE6
:1059E000420A072084ED0E0AB1EE080A84ED190A76
:1059F00084ED1A0AB1EE000A84ED1D0A84ED1E0A38
:105A00009FED3A0ADFED3E8A84ED210A9FED380AC8
:105A1000F0EE681A84ED230AB9EE080A84ED1B0A39
:105A200084ED1C0AB9EE000A84ED1F0A84ED200AF9
:105A30009FED300AB0EE481A84ED220A9FED2E0A3F
:105A4000DFED300A84ED240AA0700120E0709FEDA4
:105A50002B0A002084ED010A84F84C0084ED148A9E
:105A600084ED158A84ED168A84ED188AB0EE040A56
:105A700004F1940000F022FAF0EE681AB0EE481A31
:105A8000DFED210A9FED210A04F1BC0000F016FAB7
:105A9000DFED1F1AB0EE481ADFED1E0A9FED1E0A59
:105AA00004F1E40000F00AFADFED1C1AB0EE481A27
:105AB000DFED1B0AB1EE000A04F5867000F0FEF976
:105AC000204604F00AFBBDEC028B2046BDE81040E6
:105AD00004F018BBF034002068030020C801002047
